:020000040100F9
:10000000508C0021C96A0001C1770201B56A000164
:10001000B56A0001B56A0001B56A00010000000080
:10002000000000000000000000000000756C0001EE
:10003000B56A000100000000356C0001B56A0001DE
:10004000ED6D0001ED6D0001ED6D0001ED6D000144
:10005000ED6D0001ED6D0001ED6D0001ED6D000134
:10006000E9B30101ED6D0001ED6D0001ED6D0001E1
:10007000ED6D0001ED6D0001ED6D0001ED6D000114
:10008000ED6D0001ED6D0001ED6D0001ED6D000104
:10009000ED6D0001ED6D0001ED6D0001ED6D0001F4
:1000A000ED6D0001ED6D0001ED6D0001ED6D0001E4
:1000B000ED6D0001ED6D000153B94AB9002908BF8B
:1000C00000281CBF4FF0FF314FF0FF3000F00CB89C
:1000D000ADF1080C6DE904CE00F008F8DDF804E09D
:1000E000DDE9022304B07047704700BF2DE9F047F7
:1000F00086468C460846089E154674461946002BCF
:1001000040F0C1808542B2FA82F245D94AB1C2F1CB
:10011000200300FA02FC954094402EFA03F343EAD0
:100120000C0C4FEA154EA8B2230CBCFBFEF80EFBDC
:1001300018CC08FB00F943EA0C43994528D9EB1881
:1001400008F1FF3704D2994502D9A8F102072B44E0
:10015000A3EB0903A4B2B3FBFEFC0EFB1C330CFBA8
:1001600000F044EA0344A04214D92C190CF1FF33E7
:1001700004D2A04202D9ACF102032C44241A43EA6F
:1001800007401EB1D440002334607360BDE8F0879F
:100190004746DDE76346F1E792BB431B01214FEA87
:1001A000154EAFB2200CB3FBFEFC0EFB1C330CFB58
:1001B00007F840EA0343984561D9EB180CF1FF308A
:1001C00004D2984502D9ACF102002B44A3EB0803FA
:1001D000A4B2B3FBFEFC0EFB1C330CFB07F744EA96
:1001E0000344A7424DD92C190CF1FF3304D2A74286
:1001F00002D9ACF102032C44E41B43EA0040C0E7FF
:10020000C2F120039540944020FA03F12EFA03F343
:100210004FEA154E9040AFB20343B1FBFEFC0EFB1C
:100220001C10190C0CFB07F841EA0041884522D943
:1002300069180CF1FF3004D2884502D9ACF10200F4
:100240002944A1EB08019BB2B1FBFEFC0EFB1C1183
:100250000CFB07F743EA01439F420ED9EB180CF160
:10026000FF3104D29F4202D9ACF102012B44DB1BC7
:1002700041EA004193E76046E3E76146F7E76046FD
:10028000A4E76346B8E7834206D916B900210846B9
:100290007CE7C6E900E0F9E7B3FA83F78FB9834258
:1002A00001D3724508D8BEEB020460EB03030120C2
:1002B0009C461EB9002169E73846FAE7C6E9004CBA
:1002C000F8E7C7F1200CBB400EFA07F522FA0CF450
:1002D0002EFA0CF1BA401C4320FA0CF3B8404FEA56
:1002E000144901431FFA84FEB3FBF9F809FB1830E7
:1002F0000B0C08FB0EFA43EA00439A4540D9E31879
:1003000008F1FF3004D29A4502D9A8F10200234433
:10031000A3EB0A0389B2B3FBF9F809FB183308FB16
:100320000EFE41EA03418E452CD9611808F1FF33D6
:1003300004D28E4502D9A8F10203214443EA0040C9
:10034000A1EB0E01A0FB02984145CE46434602D3E5
:1003500006D14D4504D20138B9EB020E68EB040317
:10036000002EA7D0B5EB0E0261EB030101FA0CFCE5
:1003700022FA07F3F9404CEA0303C6E9003199E792
:100380004046C5E74346D9E710F8012B11F8013B79
:10039000012A28BF9A42F7D0D01A70470000000007
:1003A0002DE9F8430E46D0E90717D0F81880CC198C
:1003B0003034A045154619D81BA3D3E900231C4FA0
:1003C000A1FB0701FFF778FE0346A4EB0800A0FBA2
:1003D000070123F07F4414A3D3E90023FFF76CFE49
:1003E00020F07F4034602860BDE8F883DFF840905B
:1003F0000DA3D3E90023A8FB0901FFF75DFE0AA3C3
:10040000D3E90023044607F13000A0FB0901FFF700
:1004100053FE24F07F4420F07F4034602860BDE824
:10042000F88300BFAFF300808D49FD1A070000007C
:1004300000CA9A3B000000002DE9F04F8DB0179CD8
:100440000546676D0E4690469A469DF8589057B1FE
:10045000B4F892301BB1B4F890209A427BD2D4F811
:100460009420002A7AD14FF6FF739A4520D027783E
:100470000137FFB22770002F7CD000227049714BEA
:1004800004F11C07C1F8048081F80A900D60A1F8FE
:1004900008A09960CF600120114607F0E5FA002816
:1004A00077D1636DC4F8A45013B1204610F0A4FCBA
:1004B00094F8245015F001054DD1634A634B11782F
:1004C0001B788B427BD04FF6FF739A4508BF4FF0E5
:1004D000000AD4F8948014BF0AF101075746B4F813
:1004E000909018BFBFB2B8F1000F31D0B9F1000F32
:1004F0002ED040F271214FF0070BD4F884200AF17E
:10050000010A1FFA8AF301FB02FA514A0AFB03F3BC
:10051000A6FB020109930BFB061147A3D3E90023B5
:10052000FFF7CAFD099B4A4A1E18A5FB020142A318
:10053000D3E900230BFB0511FFF7BEFD5044304407
:10054000804586BFA8EB0606C4F89460C4F894A062
:100550004F44A4F890700DB0BDE8F08F40F27123C5
:10056000D4F88410A1FB0313914273F10003FFF44C
:100570007AAFF0E740F63E13364A3749374825F060
:10058000F6FE87F31188BFF36F8F0323184602DF4F
:1005900073E74FF416632F4A3149304825F0E7FEE0
:1005A000002383F31188BFF36F8F0323184602DF04
:1005B000636DC4F8A450002B7FF477AF78E7013364
:1005C00004210BA813701BF045FA40F247100B9B57
:1005D0002449CDE90355A1FB03215F1A224A01EB0F
:1005E0005701090A00FB1133A21A2049D208A1FBC6
:1005F00002121F4952080232013305912846012197
:10060000CDE9015506940095D2B20B9308F0E6FEB1
:1006100010F0FD0F0DD040F2AF730E4A15490F4890
:1006200025F0A5FE85F31188BFF36F8F03231846CD
:1006300002DF0B9D47E700BF00CA9A3B00000000A5
:10064000082D00210401002101700021007000210B
:100650008D49FD1A6CA40201B0A50201BC9F0201E4
:100660004CA1020121F1D490B00A00211986611831
:10067000D5EB0001B4A502012DE9F04F95B00B9226
:10068000002900F00F820128834600F2D382A825BA
:1006900005FB00F5DFF830A399460AEB050494F852
:1006A000982012F0010640F0D082FF2394F8250034
:1006B00084F8273000F003001AF0ECF994F8980061
:1006C000410700F1918194F83D3004EB83031E6CE7
:1006D00094F8293004EB8303DF6A002E00F0568182
:1006E0003246394620460FF061FB8046002840F034
:1006F000D5813B7813F00E0F00F0DD8103F00F037E
:10070000072B00F0D481B14B1B78022B00F0EC8258
:10071000A823002203FB0BA31A6500231A464FF0FF
:10072000A8084FF00009012108FB0BA8C8F8942085
:10073000A8F8923094F825300DF14500C3F38203F8
:100740000B9394F82630A8F8909003EA010294F8ED
:1007500024300C92C3F342038DF8453007F09EFA23
:100760000246002800F090810C990B9B00913846BE
:1007700031460EF0FFF831229549964BA0FB01015E
:10078000C018B8F8846041F107010AF80590C4E97F
:100790000599C8E902298AA3D3E90023C8F804907F
:1007A000FFF78AFCC8F8100008F046FF00F11803B4
:1007B0000B93002E00F07E8294F8248069F30008E9
:1007C00084F8248018F0010840F01F81A82202FB61
:1007D0000BA9A36DD9F81070002B00F023821B68C1
:1007E0000D9393F8623003F00303012B0F9340F055
:1007F00019820DF1470312A901930DF146034246F8
:100800000C91009320460B46202100F0DDFB804632
:10081000002840F043810D98DDF8491010F0C0FD2C
:10082000656D002D00F0C0822D680B9ABB1C13442F
:100830000C992846129300F02BFBFF220346114629
:1008400028460E9310F0CEFA5DA3D3E90023604949
:10085000A0FB0101FFF730FC8446129B0E99023386
:100860000B4442460D992CF07F482046984401F0F5
:100870006BF9424603460D99204601F09DF9002888
:1008800040F00281D9F854309DF84720DDF83C80D3
:100890005A759DF8463084F82930A82340F2712219
:1008A00042F6DC30002103FB0BA3D3F88430E3FBDA
:1008B000020140F2E2420023FFF7FEFBA5F84800E8
:1008C0000E9A2846129900F02BFB002840F0DC809D
:1008D0004FF001090C9B91210893022312934FF6CC
:1008E000FF7307F2471C049700273B480393A6FBBE
:1008F00000023A4B01FB06210BEB4B0292000694DF
:10090000029743F802C013440993354B0BF10206DA
:100910000793344BF6B2059329A3D3E90023FFF7DD
:10092000CBFB014632460191384603210B9B0097D1
:1009300008F0FCFC0C9909F09FFF002840F0A4800F
:10094000B9F1000F0FD095F85A3043F0010385F844
:100950005A30B8F1000F06D00D9A92F8623043F089
:10096000020382F86230A82303FB0BA393F89820BC
:10097000002042F0010283F8982012F069FA002862
:1009800040F05D8101201AF067F858E13B7803F0F0
:100990000F03072B00F0808005F13C0050441BF052
:1009A00051FDC0B2002840F082810421062294F853
:1009B0003D3004EB83031E6C3170727090E600BF13
:1009C0008D49FD1A07000000B00A0021FF6F0021C9
:1009D00000CA9A3B8C49FD1A002AE784282D002181
:1009E000119800013904000105F199013246C0F364
:1009F000C00051441AF01AFAFF2884F827003FF487
:100A000062AE30461AF08CF85DE6A821002002257F
:100A100001FB0BA1CDE90200C24FC34EC34B0BEB50
:100A20004B0205970694AA400796009009699850D2
:100A30000B9F134409930BEB050212AB0491019138
:100A4000089303213B46D2B2129508F06FFC12A91D
:100A500009F012FFC0B94AF2D8320092B44A12A982
:100A60000891059203213B460122CDE90300CDE91F
:100A7000010007960694129508F020FC12A909F0CF
:100A8000FBFE00283FF46FAFA82303FB0BA31B6AF8
:100A900013B120460EF0DEF84FF00C08404615B0BA
:100AA000BDE8F08F15B0BDE8F04F0EF017B9BB7878
:100AB0005A067FF528AE236A002BEDD109F042FEDD
:100AC0000C90002800F0F38009F048FE0D900028FB
:100AD00000F0EA8012F058FE8046002800F0E18025
:100AE0004FF6FF720285C06E08F11C030E930028BA
:100AF00000F03F8108F1600208F15C0106F02EFF72
:100B0000002198F87220C8F86C1022F0070288F8CB
:100B10007220A8F870103A7802F00F02072A00F04D
:100B20000B81012098F8582022F07F0242F0190230
:100B300088F858204FF4C0210022C8F88411B8F872
:100B4000B610C8E9122221F4FF7121F0010141F031
:100B50007F01A8F8B61098F83910A8F8322001F0F3
:100B60003F0161F07F0188F8391098F85910C8F8F2
:100B70002E2060F3020188F8591098F83C10404686
:100B800021F0070188F83C1098F8B81088F83B204D
:100B900062F3000188F8B810C8F85020A8F88A213C
:100BA000A8F8802115F030F900220C9B88F8482124
:100BB000C8F84C3113F0E0F898F8901160F3020196
:100BC00088F8901113F0DEF8002298F8901160F385
:100BD000C50188F8901198F87C1108F1C80062F3FB
:100BE000410188F87C1114F0D1FEA821002201FBFC
:100BF0000BA10C9BCB670D9BC1F8803008F11C0347
:100C00002362C8E9052288F80020C8F81C801BF080
:100C100061FA00283FF477AD20460EF01BF84FF044
:100C200003083BE7656D002D4FD112ABA9460D952A
:100C30000C934FE63F4B1B78022B3FF42DAF4FF048
:100C40000008404615B0BDE8F08F3A4B1B78022BE8
:100C5000F5D194F83D2094F8293004EB820204EB9E
:100C600083032046126CD96A0FF0A0F88046002852
:100C70007FF414AF236D002B3FF40EAF1A7902F00E
:100C8000FF0152B942F21072A4F890100B99A4F827
:100C9000929002FB01F1C4F894101B79002BCED086
:100CA000FAE60D9809F060FD0C9809F051FD4FF03F
:100CB0000708F3E697F8009009F00F09A9F1010978
:100CC000B9FA89F94FEA591976E50B9ABB1C2D68D8
:100CD0001344129312AB194628460C9300F0D8F82F
:100CE0000023CDE90D30D8E509F02CFD8046002821
:100CF00044D009F033FD00284AD0A823002203FB8A
:100D00000BA3C0F800800271186594F82430DB074B
:100D10003FF503AD42F210720B994B4602FB01F115
:100D20000A46FCE43904000111980001282D002135
:100D300035EA0001FF6F002194F8252098F858103B
:100D4000520962F3020188F8581094F82520C9B2BC
:100D5000520962F3061188F8581094F8261098F892
:100D6000582061F3C30288F8582094F82500400900
:100D7000E0E608F16400C8F86C00BBE6A82303FBBA
:100D80000BA31B6A002B92D020460DF063FF8EE769
:100D9000A82303FB0BA31B6A13B120460DF05AFFD7
:100DA000404609F0D5FC82E7A94693E50000000023
:100DB0002DE9F04104460D46012194F824308AB013
:100DC00094F82680C3F342030DF12300164608EA87
:100DD000010894F825708DF8233006F05FFFC7F303
:100DE000820702463B4631462846CDF800800DF08A
:100DF000C1FD24A3D3E900231D491E4DA0FB01C161
:100E00001CEB050041F10701FFF756F92369054680
:100E1000984223D20022191A0192174A174B0291C5
:100E2000A21A0221D208A3FB0232002352080A446C
:100E30000991134909AE059118460321CDE9033301
:100E40000696D2B2009308F0C9FA314609F014FDB3
:100E500040B9256100200AB0BDE8F081FAD900212F
:100E6000EA1AD9E70C200AB0BDE8F081AFF30080A0
:100E700000CA9A3B8C49FD1AB00A002119866118F4
:100E8000119800018D49FD1A0700000000000000C4
:100E90002DE9F0410725204E82B0044688460FF028
:100EA00035F9B4462946002331221C4FA260E0FBED
:100EB00007C163606046E36015A3D3E90023FFF731
:100EC000FBF80146FF2394F8312021F07F4104EB29
:100ED00082022161516B20461A460FF0B1F80CA333
:100EE000D3E900232946E0FB07613046FFF7E4F829
:100EF00001A920F07F4018F0F5FC18B9019B0233DE
:100F0000C8F80030002002B0BDE8F081AFF30080E7
:100F10008D49FD1A070000008C49FD1A00CA9A3B52
:100F20002DE9F04300268DB088461746C0E90566D6
:100F30005C2221490670044606F0F0FC40F2E243D0
:100F400002220546B4F848001C4903FB00F00B924E
:100F5000A0FB010116A3D3E90023FFF7ADF80DF1C3
:100F60002C090694CDF82090216904460F441449B9
:100F70001046079113494FF47A72059119460023E0
:100F8000CDE90367FFF798F801460435EDB2434613
:100F90002A460291304603210194009608F08EF90A
:100FA000494609F069FC0DB0BDE8F083AFF300805D
:100FB0008D49FD1A07000000842D002100CA9A3BCC
:100FC000119800014D0101012DE9F04F40F2012778
:100FD000A3B02C9C8F430F942D9C054610941E4665
:100FE0000C460E9200F0A48195F8293005EB83039E
:100FF000D3F82CA004F400739AF800700D9307F056
:101000000F07072F0ED023B90C27384623B0BDE8B1
:10101000F08F2846D6F80120317823B0BDE8F04F94
:101020000EF014BF9AF8023013F03F020A921CBF70
:101030009AF803200A920AF104020B920D9A12B157
:101040007F2B00F298810F9905F128001BF0C4FA5C
:101050000246814603789AF800C023F03F030CF063
:101060000F0C43EA0C0302F8023B9AF80230807836
:101070009B0963F3871089F80200686D4FF0000840
:1010800005F11C011492002800F01183437D00EB50
:1010900083039A690368911C1593D378139103F025
:1010A00001011291109914300C9209931BF094FADB
:1010B0008046017899F800E021F03F010EF00F0E14
:1010C0000C9A41EA0E01017011780078C1F3801189
:1010D00061F3861088F800001178C0B2C90961F385
:1010E000C71088F8000099F802100A9B98F80200CF
:1010F000890903F0010C61F3871014F001030C93CC
:101100004FF0010B099B88F8020040F02181BCF1EF
:10111000000F00F06C819AF8000098F800C0C0F34E
:10112000801060F3861C88F800C099F800000C99C4
:1011300061F3861089F800000AF10A010B911298F8
:10114000002840F06781101D099003F002011F91F3
:101150000A99880740F12C8140464FF0030B0B9908
:1011600098F800C006310B919AF80010C90961F394
:10117000C71C00F810CB99F800106FF3C71189F85D
:10118000001003F0020111B10999063109910A9981
:1011900011F00801199102D00B9902310B91811CB9
:1011A0000C9114F0080100F0018102213170D6F891
:1011B0000110C6F80100179105364BF0080C13F02A
:1011C0000801E3461A9102D00999023109910A995E
:1011D00011F010011B9102D00B9903310B914FF0CC
:1011E00018018DF8581009F10901119103F010014F
:1011F0001891E10640F1CE80811CC6F80110032150
:101200004CF0100B3170053603F01001002900F08E
:10121000C98000211D910999033109911BF0100F1C
:101220001CBF05300C9003F020001C90A0065FFA54
:101230008BF140F1A2800C984BF02001C6F8010020
:1012400012208B463070C9B2053603F0200000280A
:1012500000F09C8000201E900998123009908806AA
:1012600002D50C9912310C910A99490610D50B99A7
:1012700001310B9195F8251001F01C01102900F0A7
:1012800034824FF058018DF8581009F10A0111917C
:101290005B0604D5099B4BF0400B013309931BF00F
:1012A00040030A9302D00C9B01330C93119B1499B9
:1012B000581AC0B2022803D8012009F10303119380
:1012C000099B13995B1ADBB2022B02D80123D11CB4
:1012D000099192F801E09E45C0F0C5800C9908F193
:1012E000020CA1EB0C0C5FFA8CFCBCF1020F04D8D1
:1012F0004FF0010C08F103010C910D99002900F049
:101300008D80AEEB03043378DDF824E0E4B2D6F848
:1013100001103470C6F801E00536002B40F0B380B0
:10132000002940F0B08109990D930E91194682E091
:1013300040F2F453614A6249624825F018F80023EC
:1013400083F31188BFF36F8F0323184602DF4BE648
:1013500016F801EB98F800006EF3861088F800008C
:1013600099F800006FF3861089F80000BCF1000FB7
:101370003FF4E5AEE0E6122747E60E9880063FF51B
:1013800064AF03F02000002840F0908003F02000BC
:101390001E9064E70E99C9063FF536AF03F01001C1
:1013A00000297ED103F010011D9137E7179104E762
:1013B0000C9908F10A0000297FF4DDAE03F0020168
:1013C000002966D0404692F800C098F800E04FEA45
:1013D000DC1C6CF3C71E00F810EB99F800C00C99E8
:1013E0004FF0030B61F3C71C89F800C0CCE61298DC
:1013F000002838D0107898F800C0C0F3801060F34F
:10140000861C88F800C099F800000C9961F38610DA
:1014100089F8000002F10A01099196E6640524D4D6
:101420000E99890500F12F81AEEB03030D99DCB213
:10143000099B0E930B4604EB010EBEF1BF0F3FF765
:10144000E4AD0CEB04070F44FF2F3DDD0CF1010C64
:1014500063442344CA45337000F0B381904500F0E3
:10146000AB814527D1E51F27CFE5D6F80110AEEBBC
:1014700003043378DDF824E00D91E4B21946053613
:10148000CDF838E0D7E71C4600230E910D9319469E
:10149000D1E799F800C00C9961F3C71C89F800C026
:1014A00075E609994CF0100B1D91B4E609984BF0C4
:1014B00020018B461E90C9B2CEE600BF58A602019D
:1014C000CCA60201BC9F020199F8022089F8010014
:1014D000013860F3050289F8022098F802200CF127
:1014E000FF3060F305020C9E88F802201A1962444E
:1014F0000E9988F80120304622460E9328F06FF9A5
:101500000D9921B10E9B30191A4628F05BF998F815
:1015100002309A0600F0B580169B5B0640F1F88019
:101520000B9A119912F8013C01F8013C531E0B93E0
:101530004B1E11931C9B13B1099B123B09935FFA3D
:101540008BF39F0602D50C9B123B0C931E9B23B181
:10155000194612220C9828F042F91B9B13B10B9BE1
:10156000033B0B93119E95F8254016F8033C640944
:101570006FF3050306F8033C1AF0F6FD002194FA18
:10158000A4F232288CBF002001208C42B2FA82F2F1
:1015900008BF4FF0FF3216F8033C520160F3861388
:1015A0006FF3C71306F8033C189B06F8021C06F8F5
:1015B000012C13B1099B033B09935FFA8BF3DE0601
:1015C00002D50C9B033B0C931D9B23B119460322B0
:1015D0000C9828F004F9199B13B10B9B023B0B9359
:1015E0001A9B13B1099B023B0993179B002B00F038
:1015F000D680179A537812781B0203F470631A434B
:101600001198D1B200F8051C95F88E30C3F303038E
:101610001B0103EB122300F8043C0C9800F8021C99
:1016200095F88E30C3F303031B0103EB122300F87C
:10163000013C5FFA8BF39C075AD4831E5FFA8BF24E
:10164000D0070BD5129A002A00F0C080099A063AFA
:10165000116843F8061C928823F8022C99F802308E
:1016600099061CBF9DF8583089F8033098F802306D
:101670009A06159B18BF88F803B093F85A30DB0719
:1016800055D40027C1E499F8023089F801000138E7
:1016900060F3050389F8023098F8023088F801C039
:1016A0000CF1FF3C6CF3050388F802302FE7084685
:1016B0000FF072F91590002800F094801598012120
:1016C00090F83130CDF8488000EB83035A6B1C3022
:1016D00094461CF8023B517003F03F031370CDF8A1
:1016E0004CC0434682F80380DCE44BF0400BCFE56E
:1016F0001F9B002B6DD0099B063B09931A680C9920
:1017000041F8082C9B8821F8043CA1F1080395E7D7
:101710000A9B002B3FF40EAF099A0C9912F8013C7A
:1017200001F8013C531E09934B1E0C9302E7159CD4
:1017300020460EF0EBFC0721374A384BE0FB023124
:10174000184633A3D3E90023FEF7B6FC236920F043
:101750007F449C4241D200261F1B0223DDF85480A7
:101760005C222F494046219306F0D8F800232D4AE9
:1017700021AD0592021D03211846CDE903330297DE
:1017800006950196D2B2009307F028FE294609F08B
:1017900073F800287FF438ACC8F8104071E795F86A
:1017A0008E30214903F00F0331F81320501C21F82B
:1017B0001300C2F30B0223E7109A6B6D12785A756F
:1017C0004FE60F9B1B7885F8293047E60B9A063ABF
:1017D0003EE70B9B063B0B9390E77FF652AF00274B
:1017E000E61ABAE7CA457FF410AC40F227630F4A05
:1017F0000F49104824F0BBFD159B83F31188BFF3FC
:101800006F8F0323184602DFFFF7FFBBAFF30080A3
:101810008D49FD1A0700000000CA9A3B8C49FD1A49
:10182000842D002111980001602D002158A602018D
:101830001CA70201BC9F020170B51E46C378154665
:10184000DC074CBF00F10A04041D9A074FF00702A1
:10185000174848BF06341B07A1FB000302FB0131F8
:1018600011A3D3E9002348BF0234FEF725FCAD1BCA
:1018700010492844A1FB00310D09490C04D0012175
:101880000D4BA3FB00304509A278207822F01F02FF
:10189000C5F3042361F3C710134320706570A37070
:1018A000204670BDAFF3008000CA9A3B00000000E4
:1018B0008D49FD1A89888888B5814E1B000000007B
:1018C0002DE9F04FD0F858B091B0DBF80030099016
:1018D000682218469049089306F020F80025FF2357
:1018E000861D0424CDE90C550DF13C0A0DF12E099D
:1018F0000DF138080CAF8DF82D30F6B20DE00D9BD0
:10190000AB4203D0002C2FD0013CE4B29DF82D3027
:10191000FF2B3CD09E424DD00D9D002002217F4BDD
:10192000CDE901890593CDE90300CDF818A0009712
:101930000DAB0DF12D020F9107F024FE022800F0EF
:10194000D5800F9B002BDAD040F6F303744A75491B
:10195000754824F00CFD002383F31188BFF36F8FCB
:101960000323184602DFCAE740F6F5036C4A6E48C7
:101970006E4924F0FCFC84F31188BFF36F8F0323BE
:10198000184602DF9DF82D30FF24FF2BC2D140F610
:10199000F703634A6448664924F0E9FC002383F3B3
:1019A0001188BFF36F8F0323184602DF9DF82D3097
:1019B0009E42B1D10E9B5F49A3F57422A2F510722D
:1019C0008A420C9F07D903F1E873013F03F5D43332
:1019D0000C9703F5A5735849089AA1FB0313526E9F
:1019E00054499E0CA2F57423A3F510738B4207D9BA
:1019F00002F1E872013702F5D4320C9702F5A572B4
:101A0000099B596D4C4B487DA3FB0232950C0A7D16
:101A10000E958242D3B204D00133DBB2022B08BF51
:101A2000002301EB83018C69E378D8074CBF0A34AB
:101A3000043499074FF00701404848BF06341A079D
:101A400048BF0234DB06A7FB000301FB073130A3CC
:101A5000D3E9002348BF0334FEF72EFB731B184461
:101A6000B0F5161F364A28BFA0F51610A2FB0012CB
:101A70002CBF40230023550C4FEA121142D0314AAB
:101A8000A2FB0020C0F34712C0F3443003432033CD
:101A900063702270BBF81010BBF81420BDF82E3014
:101AA0000A441A4422829BF824309BF8251092B2F3
:101AB0008B4206D0BBF82600121A12F4004F08BF62
:101AC0000B4603EB43035B0018335BF803205B44D6
:101AD00062601B7903F01F0323721AF043FB237A21
:101AE00043EA4013237211B0BDE8F08F0F9B022B25
:101AF0007FF427AF0221002007F08CFD0F9B022B03
:101B0000F8D01EE743EA1233DBB2CAB2C0E700BF27
:101B100000CA9A3B00000000602E0021E110010184
:101B2000BCA7020140A70201BC9F020148A7020115
:101B300078A70201BFBDF07F83DE1B438D49FD1AEC
:101B400089888888B5814E1B38B500230C46C1E9C9
:101B500005330B700AB3517893783E31C3F3050314
:101B6000C91A2046C9B20FF0F7FB072100254FF034
:101B7000310C0F4A0F4B6560E0FB0231C4F808C01E
:101B8000184609A3D3E90023E560FEF795FA03465A
:101B900023F07F432361284638BD91F8453001EB9F
:101BA00083039A6CD7E700BF8D49FD1A0700000038
:101BB00000CA9A3B8C49FD1A2DE9F0470D4640F2C8
:101BC000E240B5F860608CB0904600FB06F66822F3
:101BD00028461D499A4605F0A1FE02230027044627
:101BE0001A480B93A6FB000115A3D3E90023FEF7C7
:101BF00063FA0DF12C090695CDF820902969054668
:101C00005144CDE9037112491046079111494FF42F
:101C10007A72059119460023FEF74EFA0146063402
:101C2000E4B24346224602913846032101950097CB
:101C300007F044FB494608F01FFE0CB0BDE8F087F2
:101C40008D49FD1A07000000602E002100CA9A3B52
:101C500011980001C11101012DE9F0418A784B78FA
:101C60008AB003F13E01C2F30503C91AC9B20446A2
:101C70000FF072FB1FA3D3E900231B49A0FB010156
:101C8000FEF71AFA236920F07F45AB4223D90027DB
:101C9000A3EB05080223682214492046099305F0A6
:101CA0003DFE0023124A09AE0592821D032118460B
:101CB000CDE90333CDF8088006960197D2B20093A0
:101CC00007F08CFB314608F0D7FD48B925610020AC
:101CD0000AB0BDE8F081FAD24FF00008EF1AD9E758
:101CE0000C200AB0BDE8F08100CA9A3B602E0021AA
:101CF000119800018D49FD1A070000000000000046
:101D0000F8B5294C9DF818E094F8565015F00205E6
:101D100040D107074FEA500604D594F8AE70BF07CC
:101D200038D4583471B391274FEA401C1F48A4F8A7
:101D30004410A2FB00014FEACE0E07FB021194F8FB
:101D40003C200EF0180E0CF0200C66F302024CEA58
:101D50000E0C94F832E084F83C2094F856202EF0D3
:101D6000380E4CEA0E0C63F3830284F8562084F894
:101D700032C00BA3D3E90023FEF79EF9A064E06410
:101D80002846F8BD94F83C30284661F3020384F8F5
:101D90003C30F8BD0C252846F8BD00BFAFF30080ED
:101DA0008D49FD1A07000000082F0021002AE78452
:101DB00070B504469126124D02854FEA411CA3FBE3
:101DC00005019DF810E006FB03114FEACE0EA37D3E
:101DD0000EF0180E0CF0200C4CEA0E0C23F0380319
:101DE0004CEA030C84F816C003A3D3E90023FEF7E2
:101DF00063F9E06270BD00BF8D49FD1A0700000065
:101E0000002AE784000000002DE9F04F044690F816
:101E100056308DB06FF30003C3F3800084F8563062
:101E200094F8323004F13E0160F3861384F83230C6
:101E300007F05AFC0026912194F83220B4F844307F
:101E4000854802F0790284F83220A3FB0002C4E93D
:101E5000056601FB03217EA3D3E900232670E4611C
:101E6000FEF72AF93123DFF8F491A3607C4BA4EB51
:101E70000905A3FB0535E36CC5F38715A364183387
:101E8000984298BF0346DFF8DC8105EB45026660A7
:101E9000E6608CBF23612061074698BFA66448F8BE
:101EA00022304FEA450A002D5BD199F8943003F0B7
:101EB0000703032B73D84FF0000B07F0BDFB236A19
:101EC00000F11806002B00F084800DF12C099121FF
:101ED000AA4408EB8A034FF000084FF0020A099366
:101EE000CDF820900694B4F8443022695A48049200
:101EF000A3FB000201FB03215B4BCDF82CA0079351
:101F00005A4BCDF80C80059351A3D3E90023FEF77B
:101F1000D3F8104619464FF47A720023FEF7CCF836
:101F2000014608355E44EDB20291334603212A464C
:101F300040460197CDF8008007F0F8F9494608F0CF
:101F40009BFC002841D194F8563043EA0A0384F8F8
:101F500056300DF0C7FD002856D000200DB0BDE86A
:101F6000F08F012DA7D199F83C30DB07A3D5A66CE3
:101F7000002EA0D09121B9F8443037484FF0000B23
:101F8000A3FB000201FB032131A3D3E90023FEF7E9
:101F900093F8874247D00023C8F80C308DE7A66C31
:101FA000002E88D09121B9F89C302B48A3FB000269
:101FB00001FB032126A3D3E90023FEF77DF8874226
:101FC00026D00023C8F8003075E70C200DB0BDE81E
:101FD000F08F0DF12C09CDE90A3303204B4621691E
:101FE0000AAA01F001FE00287FF471AF18A3D3E91B
:101FF00000230B991E48A1FB0001FEF75DF80A9B28
:1020000020F07F461E4462E7504618F025FDA4E705
:10201000D9F8A03033449F42D3D302339F429CBFB0
:10202000193E2661CDE7D9F8483033449F42B2D3F8
:1020300002339F42AFD8193E2661D9F84830C4F820
:1020400048B0C9F848B003F1020BA4E7AFF3008031
:102050008D49FD1A07000000002AE784082F00219F
:10206000A38B2EBAF02E0021119800013526010114
:1020700000CA9A3B000000002DE9F04F0B790C4696
:10208000082B07468FB000F0FC80092B00F0D480AD
:10209000062B11D040F24513B34AB449B44824F09A
:1020A00066F9002383F31188BFF36F8F032318466B
:1020B00002DF0FB0BDE8F08FD1F808A0DAF81830D1
:1020C0006BB19023A84AAB49A94824F050F90023EA
:1020D00083F31188BFF36F8F0323184602DFDAF80A
:1020E0000090484610F080FE012300F108080B9391
:1020F0005FFA88F80026A27E94F8213066F38612F3
:102100002760A276E660002B61D03546314604F1A7
:10211000220E94F82220900656D094F9230094F8C9
:1021200023C00028C0F21C811CF0010F14BF04F171
:102130002A0004F124001CF0020F18BF06301CF026
:10214000040F18BF01301CF0080F18BF02301CF03C
:10215000100B1CBF834603301CF0200F18BF123039
:102160001CF0400F18BF0130C2F30502A0EB0E00B7
:102170000132D2B2C0B2824238BF02469A4236BF62
:102180009A1A0022D2B2BBF1000F00F0B7809BF880
:1021900002009BF801C0030203F4F85353EA0C0356
:1021A00000F0AC80002900F01781002D00F028829B
:1021B0002B8F13449BB22B87A3836B6B002B00F0F8
:1021C000FA80DC606C6374E7013BDBB2CDB9A383BA
:1021D0002146384608F0CEFA0FB0BDE8F04F08F0BF
:1021E000D5BA062394F81AC000216046237194F8EA
:1021F000213061F386102760E160A076002B40F06B
:102200008B822A8F13449BB22B87A383B9F1000FD3
:1022100000F0818099F856306A6BDB0700F1B480DA
:10222000D460EE6A6C63002E00F0848028460FB004
:10223000BDE8F04F10F0F2BE8E684F4B35689D42FE
:102240003ED1D5F82CA0BAF1000F00F0A2804A4987
:102250003C22084605F062FB00F10A085FFA88F8A4
:10226000DAF8000010F0DAFD7279814602F0070218
:10227000022A6ED0042A4CD0012AB2D040F20313B5
:102280000AE7D1F808A0DAF818306BB1A323364A70
:102290003849374824F06BF8002383F31188BFF3E3
:1022A0006F8F0323184602DFDAF80090484610F0DB
:1022B0009BFD042300F108080B935FFA88F819E7E7
:1022C000D6F81880B8F1000F00F09180D8F80050CF
:1022D000EB6A9E423FD0D023234A2849244824F069
:1022E00046F8002383F31188BFF36F8F032318464A
:1022F00002DFB24646464FF0FF08B1E7002D56D048
:102300002B8F13449BB22B87A38300293FF47EAF0E
:1023100053E7082366E740F22933134A1849144863
:1023200024F025F889F31188BFF36F8F0323184633
:1023300002DF6FE740F251330B4A12490C4824F098
:1023400016F886F31188BFF36F8F0323184602DF58
:102350006CE7072346E7B24646464FF0FF087FE7A3
:10236000002D3FF435AF51E784A902013CA00201E2
:10237000BC9F0201E0A90201E42F0021FCA9020197
:102380007CA90201C8A902016B6BA3427FF419AFBB
:102390008FE6BC23B64AB749B74823F0E8FF8AF373
:1023A0001188BFF36F8F0323184602DF4FE7A28324
:1023B00000293FF40DAF4FF4FB73AD4AAF49AE486F
:1023C00023F0D5FF002383F31188BFF36F8F03231E
:1023D000184602DF6B6BF4E65F2816D9002D00F07B
:1023E00011812B8F13449BB22B87A3830EE7CD2340
:1023F0009F4AA349A04823F0BAFF88F31188BFF38E
:102400006F8F0323184602DF60E7002D00F00C8178
:102410002B8F13449BB21E2B2B8704D994F91A20BF
:10242000002ABFF6F3AE6A6B002A00F01981D4606F
:102430002B8F6C63A38301239BF80010327961F327
:10244000050232719BF8022052099340727963F3BE
:102450000202727194F91A30002BC0F22581B9F191
:10246000000F00F0408199F8563013F001038BD132
:10247000CAF818309BF900300121002BACBF1E2395
:102480004FF49673B3609BF802709BF801203F02F3
:1024900007F4F85717439BF8002003FB07F7500693
:1024A0004CBF4FF032094FF4FA7909FB07F9754A2E
:1024B0007079A2FB09294FEA994909F1300203EB2F
:1024C0004203B36000F0070019F02EFC0B9B626919
:1024D0005907A2F1300240F19A80A17E94F8213090
:1024E000C1F380014900DB0001312B338B4003F540
:1024F000BC7317443F1AA7EB09073122FF1A0023C8
:10250000AA606B60EB60737903F00703032B7BD841
:1025100003F10902D2005B10DA4007215A4E00F2A3
:1025200005335A481344E3FB06014FA3D3E90023C4
:10253000FDF7C2FD034623F07F43A7FB06012B6195
:1025400049A3D3E90023FDF7B7FD07460022022186
:10255000012005F055FAB8F1FF0F27F07F471BD097
:10256000002623694246493B01213046CDE90066F9
:102570003B4406F04FFF10F0FD0F0DD040F2FF235B
:102580003B4A43493C4823F0F2FE86F31188BFF3EF
:102590006F8F0323184602DF3C223E49284605F090
:1025A000BDF900263C4B0121CDE907353B4BCDE978
:1025B00005352A692369049200F10A02CDE9026611
:1025C00030460097493BD2B2019606F077FE10F0F4
:1025D000FD0F0DD040F20F33254A3149264823F034
:1025E000C6FE86F31188BFF36F8F0323184602DF00
:1025F0000122022110460FB0BDE8F04F05F000BAED
:10260000A283D8E6A283E3E54FF4347285E7DDF8D0
:102610002CC094F821100CF003030B440933DB00A9
:10262000CCF34001CB4064E71E48CDE90C2105F016
:1026300049F9DDE90C210546002863D0134690F8DE
:102640002020C0E9051161F3C712017001634163E5
:10265000C061C0F82CA080F8202000F11C06038780
:102660002C63E6E6AFF300808D49FD1A07000000F9
:1026700084A90201F0A90201BC9F020110AA020173
:10268000F4A9020183DE1B4300CA9A3B8C49FD1A60
:1026900050AA0201E42F002109310101012F01019B
:1026A00080AA0201E02F0021DAF8183083B1B3428A
:1026B0000ED040F27F231B4A1B491C4823F057FED3
:1026C000002383F31188BFF36F8F0323184602DFC3
:1026D000CAF81860A37E43F04003A37633796FF302
:1026E00086133371E5E440F296230E4A10490F48F1
:1026F00023F03DFE89F31188BFF36F8F0323184643
:1027000002DFB0E694F91A30002BBFF661ADA37E6C
:1027100043F04003A3765BE50B92CCF3C00104F1D8
:10272000220EF6E484A9020124AA0201BC9F020140
:102730007CA90201000000002DE9F04F05468BB096
:102740008B46012002219A4614461EF0C1F9002250
:1027500002218146012005F053F94FF4CC723C4927
:10276000284605F0DBF806460B36F6B201210020BC
:102770003246384B009506F08BFE10F0FD0F0ED060
:1027800040F63203344A3549354823F0F0FD002342
:1027900083F31188BFF36F8F0323184602DF314B99
:1027A000A4FB034828A3D3E9002320464146FDF7B4
:1027B00083FC07222C4B20F07F47A7FB033102FB51
:1027C0000711E01A68EB01014FF47A720023FDF75C
:1027D00073FCCDE900B7029008950695296995F933
:1027E0003940224804912249534631EA240128BF46
:1027F00001464FF6FE7405911E49324607910020AE
:102800000121039406F05AFD10F0FD0F0ED040F6A2
:102810004703114A1149124823F0A9FD002383F30D
:102820001188BFF36F8F0323184602DFB9F1000F41
:1028300002D10BB0BDE8F08F0122022110460BB08F
:10284000BDE8F04F05F0DCB88D49FD1A0700000027
:10285000000C002129370101F0AA020150AA02014F
:10286000BC9F020100CA9A3B8D49FD1A0D910101DE
:1028700019930101C93601014FF6FF732DE9F043A9
:1028800084688DB0228D9A4200F0888005462046EB
:1028900013F0B0FD2B7D012B00F03381022B00F0F3
:1028A0002581002B00F0048194F84871002F40F03E
:1028B0002181E68DB4F83080002E72D100232A8A5F
:1028C00008F10106CDE90A33B6B2002A71D094F9B5
:1028D0003930002BC0F280810023A4F88631AB7C14
:1028E000D90740F114810023A4F88A3131462046EB
:1028F0000DF1270213F0C4FA743000F07F81B4F8B0
:1029000084312BB1B34240F23F819B1BA4F8843148
:10291000B4F880312BB1B34240F246819B1BA4F83E
:102920008031258E17B9A84500F023810135ADB25D
:1029300094F8B53013F001015BD1DDE90A030246DA
:10294000002B40F01F81002800F0158119461E461B
:10295000228DE4690090C4480B3201910590012159
:102960000020CDE9035702960694D2B206F036FD58
:1029700010F0FD0F12D007F0A9FF84420ED04FF4E3
:10298000A363BA4ABA49BB4823F0F1FC002383F39E
:102990001188BFF36F8F0323184602DF0DB0BDE827
:1029A000F08300232A8A4644CDE90A33B6B2002ACE
:1029B0008DD1AB7CDA0796D4B4F88631002B00F0C9
:1029C000A680B34240F232819B1BA4F88631B4F852
:1029D0008A31002B8AD09E4280F0168100229B1BF8
:1029E0009BB2062BA4F88A31228600F2E4800127EC
:1029F0007CE794F939206FF30003002A84F8B5309E
:102A0000C0F29C8094F85800C0F3C00100F00700A9
:102A100019F088F994F85820034602F00702032AB7
:102A200000F29B8002F12800C0005210D04094F8C0
:102A30005920B0F5A07F02F0070238BF4FF4A07014
:102A4000032A00F2938002F12801C900521021FAF2
:102A500002F2B2F5A07F38BF4FF4A072072103F253
:102A60009F33034413448448844AE3FB0021104607
:102A70007BA3D3E90023FDF71FFB266920F07F40ED
:102A8000864234BF811B361A206138BF0026DDE93B
:102A90000A0328BF00210246002B7FF459AF51EAF8
:102AA000000C7FF455AF002E65D0184619464FE74D
:102AB00094F8723003F01803182B7FF4F5AEA18D53
:102AC000B4F882218B1D9A42D2BF1346931F5B1A22
:102AD000B4F87E11C8BF9BB2994200F0A180A4F85F
:102AE0007E31A4F88031A4F88421DDE63D231F4621
:102AF00084F84831394620460DB0BDE8F04311F066
:102B000049BA0023A4F88431A4F88031CCE6B4F8A3
:102B10008A31002B7FF45FAF40F2E24342F2107142
:102B2000628D03FB02F2B4F8883101FB0323013B01
:102B3000B3FBF2F39BB2A4F88A314AE794F8590048
:102B4000012100F0070019F0EFF894F8582003462F
:102B500002F00702032A7FF665AF94F859204FF47C
:102B6000296002F00702032A7FF66DAF4FF4296255
:102B700074E73D46DCE6002D4BD0002110460E46A2
:102B80000B46E5E60E46E3E607F034FE0146002874
:102B900042D00023A4F884311B23228D0371C2800C
:102BA000006807F0F9FDB3E600232046A4F8803161
:102BB00013F008FAB5E694F939309342BFF696AEB1
:102BC000B8F1000F7FF413AFD4F874315A08DB0763
:102BD00056D4C4F8742189E628460AAA0BA904F140
:102BE000C809FDF7DDFB484612F012FF18B348464E
:102BF00012F00EFF18B3002323866DE620469DF8E1
:102C0000271011F0C7F9C9E60821204611F0C2F9D2
:102C1000C4E6002FB1D1C1E60123A4F8843177E6E0
:102C2000B4F8841100297FF43FAE5AE73E212046D4
:102C300011F0B0F9B2E6FF2011F04AF9D7E70246E9
:102C4000D4E9170104F0A2FE0028D4D194F83C3056
:102C5000580744BFA38D23863EE600BFAFF3008034
:102C60008D49FD1A0700000085360101F0AA020116
:102C7000C4AB0201BC9F020100CA9A3B8C49FD1AF9
:102C800042F00042C4F87421B1E600BF0000000029
:102C90002DE9F04F87B0BDF84440CDE904320294ED
:102CA0000378BDF84840BDF840800394BDF84C500F
:102CB0000446468EB0F82E90B0F80CB10191002B6E
:102CC00000F0CB80013EB6B2A368721B92B2002B1B
:102CD000D4F80471009209DAE168626823F00043D5
:102CE00091422CBF7F18BF18A360FF1A009A638D12
:102CF00002FB03F39BB2B3FBF8F202FB08F080B2D5
:102D000083421FFA82FA80F09780C01A40F2E243B1
:102D100003FB00F05AA3D3E900235B49A0FB0101A8
:102D2000FDF7CAF920F07F400744D9444D44AD1B5C
:102D300040F2E24694F839305544DB09E58506FB5C
:102D400008F500F08E80226C0099A36CDFF83891B2
:102D500002FB1133A36419F007FA834694F870015B
:102D6000C0F3420019F002FA059B834406FB03F30B
:102D700005FB0BFB23650BF5742B444B0BF23F2B30
:102D8000A3FB0B3B4FEA9B4303FB0AF02364A5EB39
:102D9000030BA36C6A080344963A934228BF134678
:102DA000C4E911230023A0FB0901C4F8783134A33E
:102DB000D3E90023FDF780F9049B3F1A3448A0FBB8
:102DC00003302FA3D3E90023800A06FB00F0A0FB09
:102DD0000901FDF771F920F07F46029B2946A38582
:102DE000039B2046A4F88831A4F82A8013F084F8C5
:102DF000284BA18D2B44B3FBF5F3881D9AB290426A
:102E0000A4F8822102D2521A063A92B2019BA4F887
:102E10007E2113B10023A4F88A313B465A4631463D
:102E20002046FFF789FC94F87C3143F0010384F8D5
:102E30007C3107B0BDE8F08F08FB123140F2E2436D
:102E400089B203FB01F10EA3D3E900230E48A1FBD5
:102E50000001FDF731F93F1A67E74E445E44B6B210
:102E600032E7049B0848AB46A3FB000104A3D3E967
:102E70000023FDF721F920F07F460136ADE700BFC2
:102E80008D49FD1A0700000000CA9A3B83DE1B43F0
:102E90005917B7D17FC3C9012DE9F04F04460B681C
:102EA00095B0D3F8008094F8203091F81190C3F3D6
:102EB0008013D0F822008DF83F30E38CB9F1FF0F7A
:102EC0000E46154617680DF1480A1290ADF84C30C1
:102ED00040F000829AE803001090ADF844102346B9
:102EE00053F832CB628E9B782A81AB72D4F82E30A5
:102EF00005F118006B60D4F83E300521AB6194F801
:102F00004230CDF828C0037104F0C8FE6B7F00F09A
:102F10003F0060F305036B7794F843300128C3F357
:102F20000402AA77228F03F01F03EA8192B240F2D3
:102F3000B9811B3303F01F030B2B00F2B381002A6E
:102F400000F0B081002140F2E24332685160628FAC
:102F50002A82EA89E18E03FB02FBD8F854200D9106
:102F6000002A00F0E18140F6C41240F6A66398F80A
:102F700025107F2988BF1A460C920021384612F08E
:102F8000CFFF94F8433097F870215B0963F3430255
:102F900087F8702119F0E8F8034697F870010B9351
:102FA000C0F3420019F0E2F840F2E2420B9B5946AE
:102FB00018440BFB00F0D04B00F5742000F23F20CA
:102FC000A3FB00304FEA5B03800C963B6862AB6268
:102FD00094F83530384602FB03F3AB63A38FA7F8B0
:102FE000883112F089FFC54BC54A5B44B3FBFBF344
:102FF000C7F88C219AB2A7F88221298A881D8242BB
:1030000004DDC1F57F41FA310A4492B2A7F87E216E
:103010006B68C7F87431D8F85430002B00F0CA81BF
:1030200001230B93E20700F18B814FF4807323841B
:1030300098F8270018F010F804F12F03002800F08A
:103040007581A26AC4F82F20A28D9A80B9F1FF0F72
:1030500000F0DB81BAF804301298A4F82D30C4F8DF
:1030600029009DF83F30109884F82230BDF8443094
:10307000C4F82300A4F82730EB893846E3862B8A6E
:103080002387B7F88831638797F87031C3F3420319
:1030900084F83C3010F084FB03462146AB810A984B
:1030A000E380746807F066FB1C23AA8923710B9BDD
:1030B000D4F80090E280002B40F073810B9B84F8E1
:1030C00020300CF0B5F8002840F0518121464846E8
:1030D00007F062FB95F83C3003F00703032B00F286
:1030E0002C8103F1280A4FEACA0A5B102AFA03FA74
:1030F000BAF5A47F38BF4FF4A47A95F83D0000F0EC
:103100000700032800F2168100F12804E4004310B0
:10311000DC40B4F5A47F38BF4FF4A474012118F04B
:1031200003FE8146544431234FF0000A0721DFF8A3
:10313000D4E1754809F29F3CA444ECFB0E01BB604E
:10314000C7F804A06AA3D3E90023C7F80CA0FCF7D2
:10315000B3FF034640F2E24C23F07F433B616C6ACD
:10316000F3680D9D52460CFB05330C9D303B02214C
:1031700001201D4404F044FCD8F85430ABEB0404A7
:10318000A5EB0905BBB1D3F8009048460DF0B4FBA0
:1031900002460432012150465C4BCDF80090D2B279
:1031A00006F076F9012800F0368199F85A306FF36D
:1031B000000389F85A3040460CF078FC024651482A
:1031C000A5FB000115464AA3D3E90023FCF774FFD1
:1031D0008146CDF80480B3684C4A493B009229F0FF
:1031E0007F49AA1C01210020D2B24B4406F08CF981
:1031F000012800F0F58098F82430DB0700F1AF805B
:10320000384610F0CDFA3F4B0546A4FB034838A3DF
:10321000D3E9002320464146FCF74EFF0697B368EA
:103220000722A3F1490B40F2D1134FF0000A089393
:103230003749384B20F07F460791A6FB0331E01A4F
:10324000354B02FB061105933B6968EB01014FF416
:103250007A72CDE903A30023FCF72EFF0B35EDB204
:1032600002905B462A4601215046CDE9009606F0C1
:1032700025F810F0FD0F0DD04FF4E973274A2849C7
:10328000284823F074F88AF31188BFF36F8F032363
:10329000184602DF01220221104604F0B1FB15B0EE
:1032A000BDE8F08F00220126C8F8142095F82030E0
:1032B000214662F3000385F82030E5680A982671FC
:1032C00007F058FA294628682E7107F065FA15B0FC
:1032D000BDE8F08F484610AA0DF13F0117F0A2F8A3
:1032E0009DF83F3002338DF83F30F8E5AFF30080B2
:1032F0008D49FD1A0700000083DE1B437FC3C9010F
:10330000404B4C0000CA9A3B8C49FD1ACD900101FC
:10331000999001018D49FD1A0D91010178B00201CA
:1033200050AA0201BC9F02010C9326E6C4F82F00AC
:1033300098808BE64FF42964F0E64FF4296ADCE6C6
:10334000F8233F4A3F49404823F011F8002383F314
:103350001188BFF36F8F0323184602DF65E6002351
:10336000012218461146009306F092F848E72146DC
:10337000484607F0FFF9D8F850404046D4F800908E
:103380000CF094FB5FFA80FABAF1010F18D8002311
:103390001222A4F806A022712372AA8963726281A4
:1033A00094E66B7F281D43F040036B7716F02EFEEA
:1033B000E88383E694F82030C3F340130B9331E69F
:1033C0004FF4A6731E4A21491F4822F0D0FF002364
:1033D00083F31188BFF36F8F0323184602DFD6E70C
:1033E00007F074FA80453FF406AF40F27923144A9F
:1033F0001749154822F0BBFF002383F31188BFF360
:103400006F8F0323184602DFF5E60022C4F8292057
:10341000A4F82D2025E607F059FA81453FF4C5AE02
:1034200040F27923064A0A49074822F0A0FF8AF3AE
:103430001188BFF36F8F0323184602DFB5E600BF84
:1034400078B00201D8A30201BC9F0201ACA4020122
:10345000D4B00201000000002DE9F04F04468DB009
:10346000BDF8605000200795BDF8685017460395D9
:10347000CDE905419DF85C80BDF864B09DF86C50C5
:1034800004930FF0F7FC002800F0998008F0010980
:103490000446484606F018F9B9F1000F7DD1012025
:1034A0000FF0E8FC0646002800F089806B077CD509
:1034B000036A002B00F0758106F11C0494F820309B
:1034C000D4F804A065F3020384F82030BAF1000FA9
:1034D00000F0858063681D680893089B93F83C00A2
:1034E000C0F3C00100F0070018F01CFC94F8202085
:1034F000034602F00702032A5ED802F12801C90040
:10350000521021FA02F2B2F5A47F38BF4FF4A47230
:103510005200072103F29F331344B348B34AE3FB3D
:1035200000211046AEA3D3E90023FCF7C5FD0346F6
:1035300023F07F432B61384617F0CEFA238C03F03B
:10354000BF0363F0FF032384002F3CD0A8F10203E4
:10355000012B40F21B81DDE9052396F856100498F3
:1035600068F3830186F8561094F8201060F3451133
:1035700084F82010169903980968A1601699898823
:10358000A082A181204600210097FEF711FC03468E
:103590000020F3640DB0BDE8F08F062104F0D2F9ED
:1035A00000287FF47CAF1220F4E7236A002B00F0A0
:1035B000FB8026461C3481E74FF4A952A9E70C2072
:1035C0000DB0BDE8F08F17F0FFFE0028BED03A46E0
:1035D0001699049817F02AFC84F82100B6E707F042
:1035E000B1F80990002800F0F78010F0CDF80546FA
:1035F000002800F0EE80203004F066FB05F11C038B
:103600000893002840F0D380032105F1240018F02E
:10361000FBF9079BE86E6B854FF6FF73A5F82CB09E
:103620002B85002800F0D18005F1600205F15C01D6
:1036300004F094F97F234FF0000A85F8B630B5F80E
:103640005830C5F86CA023F4EF6323F0070343F46C
:103650008C7343F00103A5F8583095F87230A5F843
:1036600070A023F0070385F87230C5F82EA0A5F8E6
:1036700032A005F1340016F073FC40F2E24B95F8ED
:103680003930012160F3050385F839300DF12F0041
:1036900018F0BAF94FF4C022039B9DF82F10A5F83B
:1036A0008831079BC5F884210BFB03FB504B514A23
:1036B0005B44B3FBFBF3A2FB0102D20802EB420224
:1036C000A1EB820195F83920053102F03F0285F81F
:1036D000392095F83C2085F83A1022F0030285F84D
:1036E0003C2095F8B720A98D6AF3000285F8B72031
:1036F00095F8B820881D6AF3000285F8B8209AB2C0
:10370000824285F83BA0A5F88AA1A5F880A1A5F87A
:10371000822102DD063A521A92B24FF0000AA5F851
:103720007E21284612F070FB5946284612F0E4FB31
:10373000099B85F848A1C5F84C3110F01DFB95F8A0
:10374000903160F3020385F8903110F01BFB95F87F
:10375000903160F3C50385F8903195F87C3105F11F
:10376000C8006AF3410385F87C3112F00FF9312368
:10377000AB6005F11C03C5F804A0C5F80CA063609C
:10378000C5E905AA85F800A0ED61A6E6002017F0BE
:10379000C7F994F82030C84643F0400384F820303D
:1037A000D9E6236A036287E6036A236201E7C1233D
:1037B000114A1249124822F0DAFD8AF31188BFF348
:1037C0006F8F0323184602DF1EE705F16400E866E9
:1037D0002AE7099806F0BCFF0720DBE6AFF300807C
:1037E0008D49FD1A0700000000CA9A3B8C49FD1A5A
:1037F0007FC3C901ABAAAAAA04B1020118A00201A1
:10380000BC9F0201000000002DE9F04F0446A38D8B
:1038100090F820708FB0806AADF83430E307C7F3BA
:10382000C0180E4615460C90C7F3401700F12F81C3
:1038300000232384B37C707C13F0010318BFD4F8F9
:10384000223004F12F021ABFC4F82F30E38CC4F8E1
:103850002F30FF28938004F1290904F1230200F09E
:10386000088104F1220116F0DDFD94F82230BDF844
:1038700034200C98023384F82230C4F82900A9F8C7
:1038800004203368D3F80090EB89E3862B8A2387E2
:10389000B9F83030638718F065FC84F83C00D5F83F
:1038A000008040460FF07CFF03460021AB8140467C
:1038B000E38012F035FB21462068746806F05AFF59
:1038C0001C23AA89D4F800A0E2802371002F40F0C5
:1038D000EE802146504684F8207006F05DFFD8E95E
:1038E0000123934238BF134640F2E24295F83C0070
:1038F000B5F80EA0C0F3C00100F0070003F1180BEB
:1039000002FB0AFAF76818F00DFA002202213F1AAA
:10391000012004F075F848460FF066FA76A3D3E963
:103920000023774C0546A7FB044720463946FCF7A1
:10393000C3FB8446CDF80490B368724AA3EB0B0333
:10394000009205F108022CF07F4501210020D2B23F
:103950002B4405F0D9FD10F0FD0F0ED040F23E33A0
:10396000694A6A496A4822F002FD002383F31188FC
:10397000BFF36F8F0323184602DF01200FF068FAB0
:103980000346A0B1814500F0AC8018460B930FF0C0
:103990002BFA02460B9B08320093012100205D4B5D
:1039A000D2B205F075FD10F0FD0F40F08A804FF0A7
:1039B0000009072201214B464846CDF8009005F04A
:1039C00067FD40460FF0ECFE0346B2684C481E46C9
:1039D000AAFB0001A2EB0B0B47A3D3E90023FCF7E2
:1039E0006BFB40F26E3109914B49CDF81C80089178
:1039F0004A4982460691D8F810101046CDE9049144
:103A00004FF47A7219460023FCF756FB0722444B09
:103A1000CDE902A0A5FB033102FB0511E01A67EB1B
:103A200001014FF47A720023FCF746FB0B36F6B225
:103A300001905B46324601214846009505F05EFC48
:103A400010F0FD0F0DD040F26F332F4A2F49304850
:103A500022F08DFC89F31188BFF36F8F0323184682
:103A600002DF0122022110460FB0BDE8F04F03F043
:103A7000C7BF0023BDF834100C98C4F82930A9F84A
:103A8000043084F82280C4F823009180F9E640F2E3
:103A9000BE231D4A23491E4822F069FC002383F3FC
:103AA0001188BFF36F8F0323184602DFC0E66B7FD8
:103AB000281D43F040036B7716F0A8FA0127E8832E
:103AC00007E74FF45573104A1049114822F04FFC94
:103AD000002383F31188BFF36F8F0323184602DF9F
:103AE00065E700200FF0B4F9034600283FF45FAF0C
:103AF0004BE700BFAFF300808D49FD1A07000000BF
:103B000000CA9A3B8992010104B1020150AA020144
:103B1000BC9F0201C19201018D9201011993010123
:103B20008D49FD1AD8A3020103460438C0B201280A
:103B300070B50D462AD9062B41D00B2B02D000249C
:103B4000204670BD00200FF033FE0028F7D090F91A
:103B50003930002BF3DB90F858300446C3F3C00132
:103B600003F0070018F0DEF807211D4E1D4A00F58E
:103B7000A1403F30E0FB0621104617A3D3E9002304
:103B8000FCF79AFA20F07F402860D9E70DF020F981
:103B900004460028D3D0FF2211460DF023F9072157
:103BA0000F4A104BE0FB023118460BA3D3E9002368
:103BB000FCF782FA20F07F402860204670BD00208C
:103BC0000DF0ACFB04460028B9D0FF210DF0C4FB7A
:103BD000E5E700BFAFF300808D49FD1A0700000044
:103BE00000CA9A3B8C49FD1A70B5144688B01E462F
:103BF00006AB029307AB019305AB0093224A234621
:103C000015F0CEFDFF2835D00721069B1F48A3FBEA
:103C1000000201FB03211AA3D3E90023FCF74CFAAD
:103C2000044600B14034079D1949A5F57422A2F558
:103C300010728A42059B15D807211448A3FB000285
:103C400001FB03210EA3D3E90023FCF735FA02465A
:103C50000020104BA3FB053504EB9544144434605D
:103C600008B070BD05F1E87505F5D435013B05F5E3
:103C7000A575E1E76FF00900F2E700BFAFF3008040
:103C800000CA9A3B00000000959701018D49FD1A7A
:103C9000BFBDF07F83DE1B432DE9F043C6683E497C
:103CA0007368D0E900971A68A7F57423A3F5107319
:103CB0008B42804683B007D907F1E87707F5D43700
:103CC00009F1FF3907F5A57773681169DD890220CD
:103CD00006F1100301AACDF80490FFF785FF002834
:103CE00050D10199A1EB09031B0238D4084649467B
:103CF00005F0A4FC26A3D3E9002304464FF0070CEB
:103D00002649A0FB01010CFB0411FCF7D5F934692D
:103D10000444002C346109DB40F2E24305FB03F369
:103D2000A34230D2E41AA342FCD334610721D8F86D
:103D300000301A48A3EB0903A3FB000201FB032197
:103D400013A3D3E90023FCF7B7F9154BA3FB0737FF
:103D5000A0EB97402044306103B0BDE8F0834846B3
:103D600005F06CFC0AA3D3E9002304464FF0070CCE
:103D70000A49A0FB01010CFB0411FCF79DF9346911
:103D8000241AC6E73469002CD0D103B0BDE8F08313
:103D900000CA9A3B00000000BFBDF07F8D49FD1AAC
:103DA00083DE1B4300000000F0B5C468054663686D
:103DB00083B0002B6ED11BF039FF00201BF092FF67
:103DC000A17A607A01F00101C0F382001BF066FF66
:103DD000627A252102F01C0208201BF0EBFF4A4BFF
:103DE00001A801931BF0CEFF40F25B6047491CF035
:103DF000B5F8237A20461A46C3F3420363F306124A
:103E0000227218F061FC17F0DFFA70BB637A9B072F
:103E100021D127682E68384617F020FF03461E443C
:103E20006A6806F1180101201CF02CFB1CF0A2FCB2
:103E300020460BF049FE0146023132463846C9B2EF
:103E400017F01AFF054680BB204617F06BFE90B9AD
:103E5000002003B0F0BD012016F0BEFD02464178FF
:103E6000023200781CF0A6FAD3E7607A10F0030063
:103E700018BF0120F0E740F22C43254A2549264887
:103E800022F075FA85F31188BFF36F8F032318466C
:103E900002DFDDE793F820309A078CD021461F48D7
:103EA0001BF0A2FE1BF0FCFFD2E740F21443184ABD
:103EB0001B49194822F05BFA07211A4B0026A5FB83
:103EC000030301FB05310EA3D3E90023FCF7F4F84B
:103ED00015490246154822F04AFA86F31188BFF3C5
:103EE0006F8F0323184602DF114821461BF07CFE2A
:103EF0001BF0D6FF6FF08B00ABE700BFAFF3008085
:103F000000CA9A3B00000000D6BE898E5555550068
:103F100078B502014CA10201BC9F02012DBE010136
:103F20003CA002018D49FD1A38B60201F8B5020124
:103F3000D5C101010000000000232DE9F047C4684D
:103F400082B006460DF1030104F1140067688DF894
:103F5000033018F077FB8046002800F0D9803B7BC7
:103F600007EB83031D692B7803F00F03072B0DD09C
:103F70009F23934A9349944822F0F9F9002383F34D
:103F80001188BFF36F8F0323184602DFAB7813F05D
:103F90003F0900F09980EB78D8074CBF05F10A0281
:103FA0002A1D990748BF0632180748BF0232D906B2
:103FB00040F1A780937851781B0203F4F8530B4328
:103FC00000F09F80238992F800A0013323811BF029
:103FD0002DFE00201BF086FE97F80990B97A4FEA73
:103FE0005919484601F001011BF058FE4FEA8902B9
:103FF000FF2108201BF0DEFE744B01A801930AF09C
:104000003F0A1BF0BFFE724940F25B601BF0A6FF47
:10401000504617F043FE40461BF006FFAB783F2B9F
:104020002AD821466B481BF0DFFD1CF07DF927687C
:104030003568384617F012FE03461D4405F1180195
:10404000726801201CF01EFA1CF094FB20460CF054
:104050005DFC014604312A463846C9B217F00CFE11
:10406000054600287DD1204617F05CFD002839D197
:10407000002002B0BDE8F0870DF1030107F1200038
:1040800018F0E0FA054600285DD0214652481BF0A2
:10409000ABFD96201CF0EAF948461CF0D9F89DF8D3
:1040A0000330002B48D117F08FF900283ED17B7ADE
:1040B0009B07BCD0012016F08FFC024641780232EB
:1040C00000781CF077F9B2E7AB233D4A43493E48FC
:1040D00022F04DF989F31188BFF36F8F032318463F
:1040E00002DF58E74FF4AD73354A3D49364822F0B8
:1040F0003EF985F31188BFF36F8F0323184602DF63
:10410000B6E7214637481BF06FFD1BF0C9FEAFE74D
:104110008A232B4A34492C4822F029F988F3118844
:10412000BFF36F8F0323184602DF18E7787A10F089
:10413000030018BF0120BEE7D8F804306B60B8F860
:1041400008302B81AFE7F1231D4A28491E4822F091
:104150000EF985F31188BFF36F8F0323184602DF32
:1041600093E740F24913164A2149174822F0FFF815
:104170000721204B0026A5FB030301FB05310EA3FD
:10418000D3E90023FBF798FF1B4902461B4822F0A6
:10419000EEF886F31188BFF36F8F0323184602DF12
:1041A0000C4821461BF020FD1BF07AFE6FF08B00BF
:1041B0005FE700BFAFF3008000CA9A3B0000000039
:1041C00044B602019CB60201BC9F0201D6BE898E94
:1041D000555555003DD001018DD00101C4B60201F5
:1041E0004CA10201F1D1010194B60201ECB502012A
:1041F0003CA002018D49FD1AE4B60201F8B50201A6
:104200000021F0B5C4680289238A06461344A08AB7
:104210009BB2184480B2421C6382A28294F825307B
:1042200094F8242083B09A42218205D0E18C411A6F
:10423000090402D484F824301A4602EB420204EB4B
:1042400042035B7F04EB42021832E18A03F03F0332
:1042500015F0E0FE05461BF0E9FC00201BF042FDD6
:1042600063685F7A997A7F09384601F001011BF093
:1042700015FDBA00FF2108201BF09CFD04F1080089
:104280001BF080FDA389A17B40F25B6043EA014102
:104290001BF064FE284617F001FD00210DF103021A
:1042A00004F128008DF8031018F00CFC05460028D6
:1042B0005DD0294601AA20461BF088FA28461BF04B
:1042C000B3FDAB7821469A0602D0EB78DB0625D405
:1042D00043481BF089FC1CF027F8276835683846EE
:1042E00017F0BCFC03461D4405F11801726801205B
:1042F0001CF0C8F820460DF019F8014606312A4690
:104300003846C9B217F0B8FC054600283DD1204612
:1043100017F008FCB0B9002003B0F0BD3148E563E8
:104320001BF062FC4FF496701CF0A0F894F840303B
:1043300013F0010315D000233A46384619461CF005
:1043400007FDCAE740F20713274A2849284822F008
:104350000EF885F31188BFF36F8F0323184602DF31
:10436000D9E719463A4638461BF0A2FFB5E7B02315
:104370001D4A20491E4821F0FAFF85F31188BFF33A
:104380006F8F0323184602DF93E7F723164A1A4973
:10439000174821F0ECFF0721184B0026A5FB03036B
:1043A00001FB05310CA3D3E90023FBF785FE14497B
:1043B0000246144821F0DBFF86F31188BFF36F8FAC
:1043C0000323184602DF104821461BF00DFC1BF0AA
:1043D00067FD6FF08B009FE700CA9A3B000000006A
:1043E000F5D50101D5D60101F0B602014CA10201BB
:1043F000BC9F020198B602013CA002018D49FD1A42
:1044000040B70201F8B50201E5BD0101000000005E
:104410002DE9F041C4688CB094F91630002BC0F23D
:104420001781636805460E46002B40F00681A37D88
:104430006FF30003A3751BF0F9FB00201BF052FC87
:1044400094F82000012100F007001BF027FC94F8ED
:10445000202025219200082002F01C021BF0AAFC5B
:1044600094F82030012023F0180384F8203006F05F
:10447000E1FA0746002800F0D18007F120001BF088
:10448000CDFC8D4B0BA80B931BF07CFC8B4940F2B1
:104490005B601BF063FDA07DC0F34100253017F089
:1044A000FDFB214686481BF09FFBA37D9B0603D4A2
:1044B0006368002B00F0AF8096201BF0D7FF00232D
:1044C0001A46194618461BF0D9FE16F07DFF002843
:1044D00039D1A37D13F0180F60D1D4F800802F6874
:1044E000404617F0BBFB07446A6807F1180100203B
:1044F0001BF0C8FF1CF03EF91BF038FF20460EF001
:104500007FFC0146083140463A46C9B217F0B4FB79
:104510008046002840F0A38016B9E36A002B56D1EC
:10452000636843B1674B0122022100209D6003F0C4
:104530009BFA00283BD1204617F0F4FAF0B900208E
:104540000CB0BDE8F081A07DC0F3C00016F044FAC5
:1045500007460DF12B0016F0A1FD804679783878DA
:10456000BA1C1BF027FF94F82020414692009DF8CA
:104570002B0002F01C021CF097F9AEE740F20B236F
:10458000514A5249524821F0F2FE002383F3118828
:10459000BFF36F8F0323184602DFD0E7012016F028
:1045A0001BFA4178821C00781BF004FF95E740F26B
:1045B0000623454A4749464821F0D9FE002383F3A4
:1045C0001188BFF36F8F0323184602DFB3E740F271
:1045D000F3120892404A00930792404A3B460592E4
:1045E00031460722CDE90366CDE90166069404F061
:1045F00065FE10F0FD0F93D04FF4FA73324A38493C
:10460000334821F0B4FE86F31188BFF36F8F032384
:10461000184602DF84E71BF087FE56E74FF4C573A8
:10462000294A30492A4821F0A2FE87F31188BFF3B6
:104630006F8F0323184602DF1FE7636893F820306B
:10464000D90705D4636893F820309A077FF5EFAE59
:10465000214625481BF0C8FA1BF022FC6FE740F208
:10466000E513194A21491A4821F081FE0721204B00
:104670000025A8FB030301FB08310DA3D3E90023A8
:10468000FBF71AFD1B4902461B4821F070FE85F31B
:104690001188BFF36F8F0323184602DF17482146A6
:1046A0001BF0A2FA1BF0FCFB6FF08B0048E700BF89
:1046B00000CA9A3B00000000D6BE898E55555500B1
:1046C000A14700018C0200214CB702014CA102015C
:1046D000BC9F020150A0020109DC01013DDC010187
:1046E000B8A40201C4B502012DBE01013CA0020123
:1046F0008D49FD1AA4B70201F8B50201A9D901013B
:1047000038B5044619F0F4F8A37DA27DC3F3410344
:10471000013303F00303032B08BF002363F34202BA
:1047200014BF03F125002520A27517F0B7FA6368BE
:104730000BB1236953B904F07FFF01460020033118
:104740001BF018FFBDE838401CF014B81BF0AAFF9E
:10475000054604F071FF0146002003311BF00AFFFB
:104760001CF008F81BF09EFF294604F067FF0721A4
:104770000346094AA0FB020201FB032104A3D3E97B
:104780000023FBF799FC23691B1A236138BD00BF86
:1047900000CA9A3B000000008D49FD1A000000008D
:1047A0002DE9F04F8DB004461BF0C4FB10F0FF0064
:1047B00013D1FF238DF829008DF827008DF82A30BA
:1047C0008DF8283017F0C4FA2146A0481BF00CFAE7
:1047D0001BF066FB0DB0BDE8F08F1BF0CBFB054670
:1047E0001BF01CFE8DF827001BF022FE8DF8280020
:1047F0001CF0D2F88DF829001CF0B0F88DF82A00D2
:104800001BF0CEFD06461BF0A7FDEDB2074617F0E4
:104810009FFA002DD8D0012006F00CF9054600289B
:1048200000F0058195F8203005F1200903F00F0311
:10483000072B00F0D0809DF82730002B53D19DF836
:104840002980B8F1000F40F0E88042464FF0FF0A9F
:1048500041465346204619F08FFB0028B4D09DF8FE
:104860002980002395F8202061688DF82B30F6B25E
:1048700002F00F0300295DD0616891F820108807CD
:1048800058D4072B40F0EA8094F820305A079BD088
:104890000DF12B0201924B46002201212046CDF85A
:1048A00000A019F0AFFB002800F0908095F82130AF
:1048B000002B89D063682BB195F8203003F00F03EB
:1048C000072B81D19DF82B50334652464146204656
:1048D0000097019519F044FA00283FF475AF1030A5
:1048E0007FF472AF76E7A07D9DF82810C0F3C0007A
:1048F00016F0DEFB9DF8298082469DF82720A7E769
:10490000012B54D195F821200C2A5FD119460023A0
:1049100095F8202020460193CDF800A0D20905F19A
:10492000280319F0AFF9002840F0A58095F8203051
:1049300003F00F03002B3AD195F821309A1F1F2A5C
:104940000DD8A27D02F02102202AB3D1D4F804B000
:10495000BBF1000F00F09281063B1F2BAAD995F8FE
:10496000203003F00F03072B8ED0042B7FF42CAFE5
:1049700095F82130063B1F2B3FF626AFA37DDB07C2
:104980007FF522AF1BF004FB95F820300278C3F3CB
:104990008013B3EBD21F7FF417AF0622083005F166
:1049A000220124F0B3FD00287FF40EAF7EE7062B32
:1049B000C2D04521D94011F0010140F03D81012BC9
:1049C000CDD195F821300C2B00F01D8195F82030C9
:1049D00003F00F03C9E70DF12A0301930DF1290339
:1049E000009349460AAB20460DF127021AF0DCF885
:1049F0009DF827308346002B40F0ED809DF82980FC
:104A0000B8F1000F40F010814FF0FF0ABBF1000F2A
:104A10003FF427AF9DF827201AE79DF82A0016F0EB
:104A2000B9FB9DF8298082469DF8272010E740F2C7
:104A3000C723074A0749084821F099FC85F31188E4
:104A4000BFF36F8F0323184602DFEBE6FDD90101A8
:104A50004CB70201C4B50201BC9F0201A17D090748
:104A600040F1C480002B7FF44BAF95F82130063B1A
:104A70001F2B3FF674AF042005F0DCFF00283FF445
:104A8000A3AE1BF08FFEE36A074643B940F27122E2
:104A9000238D02FB03F3B0FBF3F203FB12070721A4
:104AA00023681A69C24BA2FB030301FB0231BEA3B8
:104AB000D3E90023FBF700FBA0F2F343BB42FFF472
:104AC00083AE1BF031FC63685046079316F0D2FAB0
:104AD00094F8203081465B0640F12881002800F0E0
:104AE0002581834601271BF053FACDE9027B074657
:104AF0000BAB049305F12203019395F820300022BB
:104B0000C3F38013204639460093012319F0E8FAD5
:104B100038461BF089F91BF003FA002840F00C819D
:104B20002146A4481BF060F8002E40F01581626811
:104B300092F8203043F0010382F82030A37D43F047
:104B40008003A37505F092FF4FF6FF7217213B46D5
:104B50000646C280017195F820E000F12002CEF3F4
:104B6000401E07F1200C1F685D689868D9681033F3
:104B70006345176055609060D16002F11002F2D178
:104B80001B68136096F82030B4606EF3451386F806
:104B900020301BF087FDB8F1000F08BF4FF0FF0A6F
:104BA00030610B9B86F819A0736194F8203013F0E4
:104BB000400303D0B9F1000318BF0123B27E63F3B1
:104BC0000002B27605F052FF034631463068F360CA
:104BD00005F07AFFFEE5A07D9DF82810C0F3C00027
:104BE00016F066FA9DF8298082460FE7BAF1FF0FAA
:104BF0008DF82CA0C2F3801B21D094F821205245BF
:104C00003FF430AF96E695F820200DF12B03019389
:104C10002046CDF800A0D20905F1280319F032F89A
:104C200000287FF443AE9AE69DF82A0016F0B2FA07
:104C30009DF829808246E9E695F821308CE605F159
:104C4000220158460BAA079116F062FB079900282B
:104C50003FF46CAE94F82030C3F340135B457FF40F
:104C600065AE062204F1080024F050FC00287FF411
:104C70005DAE95F8203003F00F03F3E696201BF0AD
:104C8000F5FB58461BF0E4FA3346414652462046AF
:104C9000CDE9007B19F064F800287FF495AD1BF096
:104CA00077F9064603210C223378504661F303035B
:104CB000337095F8203072703278C3F3801363F349
:104CC000C712327016F0D6F994F82020570649D54D
:104CD000002847D03246317841F0400102F8021BEB
:104CE0000168C6F8021083889380D5F822303046D8
:104CF000B360EB8CB3811BF097F81BF011F900281F
:104D000040D11BF037FDA37D43F00103A37595F857
:104D10002030190705D194F8203043F0080384F8B7
:104D20002030214624481AF05FFF53E5A77D04F1A7
:104D3000220BC7F38017D6E640F2A9431F4A204949
:104D4000204821F014FB002383F31188BFF36F8FF9
:104D50000323184602DFE3E61BF012FB079B83F8F0
:104D60009A00E4E6A37D3278C3F3801363F38612DE
:104D7000334603F8022BD4F82220C6F80220E28C36
:104D80009A80B2E740F22D530C4A0D490D4821F0AC
:104D9000EEFA002383F31188BFF36F8F03231846C5
:104DA00002DFAEE7AFF3008000CA9A3B00000000CC
:104DB0008D49FD1AE9DA010111DA01014CB702014E
:104DC000CCB50201BC9F02012DE9F047C46882B056
:104DD00007460DF1020120460EF044FA90F9163014
:104DE000002BC0F2048143680646002B40F0F4809B
:104DF000002523796FF386132371974B1D801AF0DA
:104E000015FF28461AF06EFF6079012100F00700B7
:104E10001AF044FF6279FF219200082002F01C0280
:104E20001AF0C8FF012005F005FE0546002800F035
:104E3000C48005F120001AF0F1FF884B01A801930E
:104E40001AF0A0FF864940F25B601BF087F82079DA
:104E500000F03F0016F022FF214682481AF0C4FEFF
:104E600096201BF003FB6279012302F00702104633
:104E700000211BF003FA16F0A7FA002854D1B37DE5
:104E800013F0180F40F08180D4F800903D68484638
:104E900016F0E4FE05EB00087A6808F1180100201E
:104EA0001BF0F0FA05466079012100F00700D4F804
:104EB00008A01AF0CBFF05446079554400F00700C4
:104EC00002282FD004280CBF4FF4BC7328230121E3
:104ED0001D441AF0BDFF28441BF0F6FB1BF04AFCF2
:104EE0001BF044FA20460EF0B3F901460A3142465F
:104EF0004846C9B216F0C0FE054600287ED1736848
:104F000043B1594B01220221FE609F6002F0ACFDCB
:104F1000002843D1204616F005FE30BB002002B029
:104F2000BDE8F0871823D2E7B07DC0F3C00015F0CC
:104F300053FD80460DF1030016F0B0F8054698F8D1
:104F4000011098F8000008F102021BF033FA6279B0
:104F50002946C2F30202920042F002029DF80300C9
:104F600002F01E021BF0A0FC8EE74FF416733F4ABE
:104F70003F49404821F0FBF9002383F31188BFF338
:104F80006F8F0323184602DFC8E7012015F024FDC8
:104F90004178821C00781BF00DFA75E740F253232C
:104FA000324A3349334821F0E2F985F31188BFF3DF
:104FB0006F8F0323184602DFACE74FF4F1732B4ADF
:104FC0002D492C4821F0D3F985F31188BFF36F8F59
:104FD0000323184602DF2CE7436893F82030DA07F2
:104FE00005D4436893F820309B077FF501AF214635
:104FF00022481AF0F9FD1AF053FF8FE740F23923E7
:105000001A4A1F491B4821F0B2F907211D4B0026FF
:10501000A5FB030301FB05310DA3D3E90023FBF737
:105020004BF819490246194821F0A1F986F3118875
:10503000BFF36F8F0323184602DF154821461AF08D
:10504000D3FD1AF02DFF6FF08B0068E7AFF30080FF
:1050500000CA9A3B00000000926F0021D6BE898EE4
:105060005555550041EC01019C020021B8B70201E1
:105070004CA10201BC9F0201C4B50201B5E60101C9
:105080003CA002018D49FD1A18B80201F8B50201D1
:1050900019E20101000000002DE9F04F8FB0044635
:1050A0000D4616461AF046FF10F0FF0014D1FF23FC
:1050B0008DF831008DF82F008DF832308DF83030BA
:1050C00016F03CFE95B30021B4481AF08DFD1AF09D
:1050D000E7FE0FB0BDE8F08F1AF04CFF07461BF05B
:1050E0009DF98DF82F001BF0A3F98DF830001BF00F
:1050F00053FC8DF831001BF031FC8DF832001BF0B1
:105100004FF981461BF028F9FFB2804616F016FED3
:1051100057B1032005F08EFC074628B190F82030E7
:1051200003F00F03072B1FD0002DCCD194F82030B3
:10513000D906C8D505F09AFC0546002800F0C380C2
:105140000A2329462868AC602B7105F0BDFC94F851
:105150002030DA06B7D56FF304132146904884F85F
:1051600020301AF041FDB2E790F82130002BDBD05F
:105170000DF1320300F1200B01930DF13103009387
:105180000DF12F020CAB5946204619F00DFD9DF88C
:105190002F200346002A40F0A5809DF8311006918B
:1051A000002940F0C8804FF0FF0A33B15346204633
:1051B000069918F0E1FE0028B6D000238DF83330B0
:1051C00063685FFA89F953B1636893F8201011F0AE
:1051D000020104D197F822305B0600F1EB8063688E
:1051E000002B00F093806368002B9DD1002D00F010
:1051F000AC802B79180612D4A3691BB193F9043043
:10520000002B0CDB00220DF13303019320465B469B
:105210001146CDF800A018F0F5FE002884D0BD603E
:105220002B79BA7EC3F3801363F30412BA762B7919
:1052300043F080032B7105F019FC1BF033FA386141
:105240001BF0B0FA03464146304607931AF000FEC1
:10525000079B1B1A7B61BB7E68F38203BB76B9F1A7
:10526000000F4FD17F23069A3B76002A08BF4FF0EC
:10527000FF0ABB7E31469DF8336003F0F70366F307
:105280004103BB764246474B87F819A05846009425
:1052900019F0ACFB0922BB7E394660F3C713BB761D
:1052A00038683A7105F010FC97F91A30002B80F23B
:1052B0002082002D7FF40DAF94F8203043F01003CE
:1052C00084F8203005E74FF45673374A3749384899
:1052D00021F04DF885F31188BFF36F8F0323184633
:1052E00002DF2DE7CDE90720A07D9DF83010C0F347
:1052F000C00015F0DDFE9DF8313082460693DDE9F1
:10530000072352E71BF03CF8C3B2ACE7A37D980635
:105310007FF569AF002D00F0C8812B79590600F1A7
:10532000258197F822207F2A00F22D816268002AC9
:105330003FF460AFC7E6CDE907209DF8320015F0D5
:1053400029FFDDE9072382462FE7A369002B00F040
:10535000B58193F90430002B11DB00220DF13303EA
:10536000019320465B461146CDF800A018F04AFE96
:1053700000283FF4DBAEA369002B3FF4D7AEBC603E
:10538000A369BA7E1B79C3F3801363F30412BA7660
:10539000A269137943F0800313714CE719E201010C
:1053A00041DF0101E1E70101B8B7020198B702014D
:1053B000BC9F02015B4601222046CDE900A118F006
:1053C00021FE00283FF40BAF002D00F08681042061
:1053D00005F030FB00283FF476AE07951BF0E2F9AC
:1053E000E36A834643B940F27122238D02FB03F343
:1053F000B0FBF3F203FB120B072123681A69CC4BB5
:10540000A2FB030301FB0231C7A3D3E90023FAF790
:1054100053FE0346700700F1748106F0030202F1A7
:105420002B01C6F34000C9001732D200C1405B1AFD
:10543000C2406FF485610B449B1A5B45FFF474AE68
:10544000504615F017FE94F8203083465B0640F175
:105450006581002800F0628102460123CDE908320F
:105460001AF096FD099A089B03920DAA049207F17F
:1054700024020293019297F820200746C2F380127B
:105480004346204639460092324618F029FE3846F7
:105490001AF0CAFC1AF044FD002840F078811BF095
:1054A00069F996201AF0E2FF30461AF0D1FE07990A
:1054B000A0481AF099FBB9F1000F40F062816268D0
:1054C00092F8203043F0010382F82030A37D43F0AE
:1054D0008003A37505F0CAFA17224FF6FF7306463C
:1054E0000271C38007F1200200F12003D7F800E029
:1054F000D7F804C0B868F96810379742C3F800E0DD
:10550000C3F804C09860D96003F11003EED13A6883
:105510001A6096F82030B46043F0200386F82030FB
:105520001BF0C0F8069B3061002B08BF4FF0FF0A4C
:105530000D9B86F819A0736194F8203013F0400396
:1055400003D0BBF1000318BF0123B27E63F3000256
:10555000B27605F08BFA079BF060DE60002D7FF4D9
:10556000B8AD754A138801331380B2E5A269002AE9
:1055700000F0CC8013795A063FF535AE97F822300B
:105580007F2B7FF630AE00220DF1330301932046CE
:105590005B461146CDF800A018F034FD00283FF41A
:1055A00022AE042005F046FA00283FF4BDAD962057
:1055B0001AF05CFF30461AF04BFE1AF0E9FC834605
:1055C00003210C229BF80030504661F303038BF853
:1055D000003097F820308BF801209BF80020C3F3AF
:1055E000801363F3C7128BF8002015F043FD94F885
:1055F0002020530640F1A480002800F0A1805A46E4
:105600009BF8001041F0400102F8021B0168CBF842
:105610000210838893807B6A5846CBF808303B8D14
:10562000ABF80C301AF000FC1AF07AFC002840F0BD
:1056300098801BF09FF805F019FA09233B71002DA3
:1056400000F0B98029463D48BD601AF0CDFA2B79AB
:1056500043F040032B711BF025F838611BF0A2F8D2
:105660004146044630461AF0F3FB241A7C61B9F136
:10567000000F40F09C807F20069BBA7E002B08BF65
:105680004FF0FF0A9DF8333002F065025B0042F0F4
:10569000080223F07D031343387639463868BB7619
:1056A00087F819A005F010FA13E5A269002A7FF423
:1056B00061AF6368002B3FF450AE37E50DF1330363
:1056C00001932A465B4629462046CDF800A018F0F3
:1056D00099FC00287FF44FAE28E5A3690793002BBF
:1056E0003FF424AD042005F0A5F900287FF476AE40
:1056F0001CE5114A138801331380002D7FF4E3ACBD
:1057000025E54FF4CA62A3F5356392E66268002A84
:105710007FF4D9AC1B067FF575AD80E5A37D04F160
:105720002202C3F3801399E600CA9A3B00000000EE
:105730008D49FD1AEDE30101926F00219DE3010106
:105740005B46A27D9BF80010C2F3801262F38611C3
:1057500003F8021BD4F82220CBF80220E28C9A80B6
:1057600059E740F27E43194A19491A4820F0FFFDD3
:10577000002383F31188BFF36F8F0323184602DFE2
:1057800057E71AF0FDFD636883F89A0097E64FF437
:105790007A730E4A0E490F4820F0E9FD002383F387
:1057A0001188BFF36F8F0323184602DF77E61AF0E4
:1057B000E7FDC0B260E739460748BC601AF014FA4A
:1057C000A269137943F04003137144E7B8B70201AB
:1057D000CCB50201BC9F02014DE3010100000000B5
:1057E0004FF6FF732DE9F041C46882B0A2899A4256
:1057F00000F0CC80054619F0AFFA2B89628AE08A66
:105800001A44002392B21044617F80B2461CE682A3
:105810004E066382A28204F1180300F1908001F029
:105820003F00A17F009004F11F0014F0A7FB064683
:10583000D4E90B231344A26A0021934228BF1346E4
:10584000D4E90D020244A26394F85620C4E90C3155
:1058500012F00402E1627CD01AF0E8F900201AF09C
:1058600041FA201D1AF08EFA2389A17A40F25B607A
:1058700043EA01411AF072FB304616F00FFA214656
:105880005D481AF0B1F996201AF0F0FD94F83C202A
:1058900094F83D00C2F3C003002102F0070200F0BB
:1058A00007001AF0EBFC204619F0B8FA26682F68BA
:1058B000304616F0D3F903461F446A6807F1180111
:1058C00000201AF0DFFD80461AF01EFF00201AF0BB
:1058D0003FFF236B94F83D0003F13002A36B0121DD
:1058E00000F0070003EB42051AF0B0FA94F83D30DF
:1058F000454403F00703022B054428D0042B0CBFBA
:105900004FF4BC7228221846012115441AF0A0FA5F
:1059100028441AF0D9FE1AF029FDA1893A460B3124
:105920003046C9B216F0A8F90546002835D1204600
:1059300016F0F8F8D8B9002002B0BDE8F0811A4698
:1059400001F03F03E18B14F065FB064670E7182277
:10595000D9E7D4E9100102F019F800287FF47CAFF0
:1059600094F8563043F0040384F8563074E740F25C
:105970005513224A2249234820F0F9FC85F3118867
:10598000BFF36F8F0323184602DFD4E721461E487A
:105990001AF02AF91AF084FACDE740F24B13174AAD
:1059A0001A49184820F0E3FC0721194B0026A5FBF3
:1059B000030301FB05310EA3D3E90023FAF77CFBB7
:1059C00014490246144820F0D2FC86F31188BFF334
:1059D0006F8F0323184602DF104821461AF004F99E
:1059E0001AF05EFA6FF08B00A6E700BFAFF30080FD
:1059F00000CA9A3B0000000019F1010198B80201A9
:105A00004CA10201BC9F02012DBE01013CA002017C
:105A10008D49FD1AECB80201F8B50201E5BD01019E
:105A20004FF6FF73F0B5C46885B0A2899A4200F0C2
:105A30009B80054619F090F92B89628AE08A1A4406
:105A4000002392B21044617F80B2461CE6824E066B
:105A50006382A28204F1180363D401F03F00A17FA6
:105A6000009004F11F0014F089FA0646204603A9AD
:105A700019F0E8FA039B94F856101A7861F3C30200
:105A80001A70039A94F856301178C3F3400363F305
:105A9000820111701AF0CAF8039B1A78920648D452
:105AA00000201AF01FF9201D1AF06CF92389A17A41
:105AB00040F25B6043EA01411AF050FA304616F0BA
:105AC000EDF82046039919F08FFA214640481AF064
:105AD0008BF896201AF0CAFC94F83D0000F00700FD
